:020000040000fa
:080000000002040000000000f2
:020000040000fa
:04000800c20300002f
:020000040000fa
:04000c00f0030000fd
:020000040000fa
:04001000a803000041
:020000040000fa
:04001400e6030000ff
:020000040000fa
:04001800dc03000005
:020000040000fa
:04001c00a803000035
:020000040000fa
:04002000a803000031
:020000040000fa
:04002400a80300002d
:020000040000fa
:04002800a803000029
:020000040000fa
:04002c00fa020000d4
:020000040000fa
:04003000a803000021
:020000040000fa
:04003400a80300001d
:020000040000fa
:04003800860300003b
:020000040000fa
:04003c00a803000015
:020000040000fa
:04004000a803000011
:020000040000fa
:04004400a80300000d
:020000040000fa
:040048008e03000023
:020000040000fa
:04004c00a803000005
:020000040000fa
:04005000a803000001
:020000040000fa
:04005400a8030000fd
:020000040000fa
:040058004e03000053
:020000040000fa
:04005c00a8030000f5
:020000040000fa
:04006000a8030000f1
:020000040000fa
:04006400a8030000ed
:020000040000fa
:04006800a8030000e9
:020000040000fa
:04006c00a8030000e5
:020000040000fa
:0400700096030000f3
:020000040000fa
:04007400a8030000dd
:020000040000fa
:04007800a8030000d9
:020000040000fa
:04007c009e030000df
:020000040000fa
:04008000a8030000d1
:020000040000fa
:04008400a8030000cd
:020000040000fa
:04008800a8030000c9
:020000040000fa
:04008c00120300005b
:020000040000fa
:04009000a8030000c1
:020000040000fa
:040094007e030000e7
:020000040000fa
:0400980066030000fb
:020000040000fa
:04009c00a8030000b5
:020000040000fa
:0400a000a8030000b1
:020000040000fa
:0400a400a8030000ad
:020000040000fa
:0400a800a8030000a9
:020000040000fa
:0400ac00a8030000a5
:020000040000fa
:0400b000a8030000a1
:020000040000fa
:0400b400a80300009d
:020000040000fa
:0400b800a803000099
:020000040000fa
:0400bc00a803000095
:020000040000fa
:0400c000a803000091
:020000040000fa
:0400c400a80300008d
:020000040000fa
:0400c800a803000089
:020000040000fa
:0400cc00a803000085
:020000040000fa
:0400d000a803000081
:020000040000fa
:0400d400a80300007d
:020000040000fa
:0400d800a803000079
:020000040000fa
:0400dc00a803000075
:020000040000fa
:0400e000a803000071
:020000040000fa
:0400e400a80300006d
:020000040000fa
:0400e800a803000069
:020000040000fa
:0400ec00a803000065
:020000040000fa
:0400f000a803000061
:020000040000fa
:0400f400a80300005d
:020000040000fa
:0400f800a803000059
:020000040000fa
:0400fc00a803000055
:020000040000fa
:04010000a803000050
:020000040000fa
:04010400a80300004c
:020000040000fa
:04010800a803000048
:020000040000fa
:04010c00a803000044
:020000040000fa
:04011000a803000040
:020000040000fa
:04011400a80300003c
:020000040000fa
:04011800a803000038
:020000040000fa
:04011c00a803000034
:020000040000fa
:04012000a803000030
:020000040000fa
:04012400a80300002c
:020000040000fa
:04012800a803000028
:020000040000fa
:04012c00a803000024
:020000040000fa
:04013000a803000020
:020000040000fa
:04013400a80300001c
:020000040000fa
:04013800a803000018
:020000040000fa
:04013c00a803000014
:020000040000fa
:04014000a803000010
:020000040000fa
:04014400a80300000c
:020000040000fa
:04014800a803000008
:020000040000fa
:04014c00a803000004
:020000040000fa
:04015000a803000000
:020000040000fa
:04015400a8030000fc
:020000040000fa
:04015800a8030000f8
:020000040000fa
:04015c00a8030000f4
:020000040000fa
:04016000a8030000f0
:020000040000fa
:04016400a8030000ec
:020000040000fa
:04016800a8030000e8
:020000040000fa
:04016c00a8030000e4
:020000040000fa
:04017000a8030000e0
:020000040000fa
:04017400a8030000dc
:020000040000fa
:04017800a8030000d8
:020000040000fa
:04017c00a8030000d4
:020000040000fa
:04018000a8030000d0
:020000040000fa
:04018400a8030000cc
:020000040000fa
:04018800a8030000c8
:020000040000fa
:04018c00a8030000c4
:020000040000fa
:04019000a8030000c0
:020000040000fa
:04019400a8030000bc
:020000040000fa
:04019800a8030000b8
:020000040000fa
:04019c00a8030000b4
:020000040000fa
:0401a000a8030000b0
:020000040000fa
:0401a400a8030000ac
:020000040000fa
:0401a800a8030000a8
:020000040000fa
:0401ac00a8030000a4
:020000040000fa
:0401b000a8030000a0
:020000040000fa
:0401b400a80300009c
:020000040000fa
:0401b800a803000098
:020000040000fa
:0401bc00a803000094
:020000040000fa
:0401c000a803000090
:020000040000fa
:0401c400a80300008c
:020000040000fa
:0401c800a803000088
:020000040000fa
:0401cc00a803000084
:020000040000fa
:0401d000a803000080
:020000040000fa
:0401d400a80300007c
:020000040000fa
:0401d800a803000078
:020000040000fa
:0401dc00a803000074
:020000040000fa
:0401e000a803000070
:020000040000fa
:0401e400a80300006c
:020000040000fa
:0401e800a803000068
:020000040000fa
:0401ec00a803000064
:020000040000fa
:0401f000a803000060
:020000040000fa
:0401f400a80300005c
:020000040000fa
:0401f800a803000058
:020000040000fa
:0401fc00a803000054
:020000040000fa
:04020000a80300004f
:020000040000fa
:04020400a80300004b
:020000040000fa
:04020800a803000047
:020000040000fa
:04020c00a803000043
:020000040000fa
:04021000a80300003f
:020000040000fa
:04021400a80300003b
:020000040000fa
:04021800a803000037
:020000040000fa
:04021c00a803000033
:020000040000fa
:04022000a80300002f
:020000040000fa
:04022400a80300002b
:020000040000fa
:04022800a803000027
:020000040000fa
:04022c00a803000023
:020000040000fa
:04023000a80300001f
:020000040000fa
:04023400a80300001b
:020000040000fa
:04023800a803000017
:020000040000fa
:04023c00a803000013
:020000040000fa
:04024000a80300000f
:020000040000fa
:04024400a80300000b
:020000040000fa
:04024800a803000007
:020000040000fa
:04024c00a803000003
:020000040000fa
:04025000a8030000ff
:020000040000fa
:04025400a8030000fb
:020000040000fa
:04025800a8030000f7
:020000040000fa
:04025c00a8030000f3
:020000040000fa
:04026000a8030000ef
:020000040000fa
:04026400a8030000eb
:020000040000fa
:04026800a8030000e7
:020000040000fa
:04026c00a8030000e3
:020000040000fa
:04027000a8030000df
:020000040000fa
:04027400a8030000db
:020000040000fa
:04027800a8030000d7
:020000040000fa
:04027c00a8030000d3
:020000040000fa
:04028000a8030000cf
:020000040000fa
:04028400a8030000cb
:020000040000fa
:04028800a8030000c7
:020000040000fa
:04028c00a8030000c3
:020000040000fa
:04029000a8030000bf
:020000040000fa
:04029400a8030000bb
:020000040000fa
:04029800a8030000b7
:020000040000fa
:04029c00a8030000b3
:020000040000fa
:0402a000a8030000af
:020000040000fa
:0402a400a8030000ab
:020000040000fa
:0402a800a8030000a7
:020000040000fa
:0402ac00a8030000a3
:020000040000fa
:0402b000a80300009f
:020000040000fa
:0402b400a80300009b
:020000040000fa
:0402b800a803000097
:020000040000fa
:0402bc00a803000093
:020000040000fa
:0402c000a80300008f
:020000040000fa
:0402c400a80300008b
:020000040000fa
:0402c800a803000087
:020000040000fa
:0402cc00a803000083
:020000040000fa
:0402d000a80300007f
:020000040000fa
:0402d400a80300007b
:020000040000fa
:0402d800a803000077
:020000040000fa
:0402dc00a803000073
:020000040000fa
:0402e000a80300006f
:020000040000fa
:0402e400a80300006b
:020000040000fa
:0402e800a803000067
:020000040000fa
:0402ec00a803000063
:020000040000fa
:0402f000a80300005f
:020000040000fa
:0402f400a80300005b
:020000040000fa
:0402f800a803000057
:020000040000fa
:0402fc00a803000053
:020000040000fa
:04030000a80300004e
:020000040000fa
:04030400a80300004a
:020000040000fa
:04030800a803000046
:020000040000fa
:04030c00a803000042
:020000040000fa
:04031000a80300003e
:020000040000fa
:04031400a80300003a
:020000040000fa
:04031800a803000036
:020000040000fa
:04031c00a803000032
:020000040000fa
:04032000a80300002e
:020000040000fa
:04032400a80300002a
:020000040000fa
:04032800a803000026
:020000040000fa
:04032c00a803000022
:020000040000fa
:04033000a80300001e
:020000040000fa
:04033400a80300001a
:020000040000fa
:100400000f4021000eff27000e01880000000000b1
:10041000000020000000e000020032000001200087
:100420002002880014000700f20007000000e0002e
:1004300003003a00007f2100010020000200370085
:100440000000200001002000810f70000100320038
:100450000f000700000020000000e0000200320052
:1004600000000200000000004c0d0200000000002f
:100470000040da000000fe00c01120000000e00093
:1004800002003200002020009001880000000600d9
:10049000a1028800800478000000eb001f003700f4
:1004a000e284440054a0b4009905ba00e2844400f8
:1004b00054a0b4009906ba00e284440054a0b400e9
:1004c0000006eb00476fde00fd07b200ae018800ba
:1004d000636ce10003003a000ad801000000eb0061
:1004e0000e003700606ce10008003a00004deb00a0
:1004f0000a05e800020039003420ec000af0a000f0
:100500008b05e900f9ff3e00040037006168e10057
:10051000010032000086eb000b00070019c7ba008b
:100520001905ba000e04e00003003a000a00e000da
:10053000dbff3a0000000600fe07b200ae028800b2
:100540008a047800f5ff37000cd0a300e20f4d00bd
:100550001c003b0089027800354dba000a05e8000e
:10056000020039003420ec000af0a0008b05e900fd
:100570000f003200254dba000a05e80002003900dc
:100580003420ec000af0a0008b05e90008003200de
:100590000c00e0000600320015cdba000a05e800a4
:1005a000020039003420ec000af0a0008b05e900bd
:1005b0008984e80054a0b4000b00e000e2ff3a0098
:1005c000000006009902ba00055d78008b05e9007d
:1005d000f7ff3200c82ade00055d78008b05e900d0
:1005e000f3ff32000c00e000f1ff320019ddba0029
:1005f000eeff3700801f78000000fa006080800066
:100600000000e80060808800508080000000e80062
:10061000508088000028a9000080fa004f00780070
:1006200000400600809fbe000000fa000208a900fa
:10063000a140800000402000008060000000e00039
:10064000010032001548a9000039800068006000f0
:100650000000e0000e003200e13680000080200043
:10066000008060000000e000080032002008210047
:1006700051c0b300014878005008210011c0b300f8
:100680000148780010c0b30020f0b7002067a9002f
:100690000080fa004f00be0000400600809fbe00b0
:1006a0000000fa0000000000e1298000000820009e
:1006b000008060000000e000fbff32000188a9001c
:1006c0000080fa004f00be0000400600809fbe0080
:1006d0000000fa0000000000e1088000000820008f
:1006e000008060000000e000fbff32000388a900ea
:1006f0000080fa004f00be00004006000000fa0033
:100700000368a9000080fa00004006000000fa001b
:100710000088a9000080fa00004006000000fa00ee
:100720000108a9000080fa00004006000000fa005d
:100730000248a9000080fa00004006000000fa000c
:1007400002a8a9000448a9000080fa0000400600a1
:100750003200f8003400f800881f780018002000ec
:10076000a80188000820200008d0fe004f0478006f
:100770000000fa003e8ea8003eaea8003ecea800c3
:10078000ffff37003200f8003400f800881f7800bf
:1007900018002000a80188000820200008d0fe00d2
:1007a0004f0478000000fa003e8ea8003eaea8007c
:1007b0003ecea800ffff37000000fa003e8ea800e2
:1007c0003eaea8003ecea800ffff37000000fa00b2
:1007d0003e8ea8003eaea8003ecea800ffff370028
:1007e0000000fa003e8ea8003eaea8003ecea80053
:1007f000ffff3700000005001400200090033700c1
:10080000f4ff2f008e0337000001be002200070016
:100810000470a70003f0a1006509b10016003200c2
:100820000d0035006828e10006003500f0ff2f00bc
:10083000f1ff27000300e00013003b000100280047
:100840000000050000004000818048008502e900aa
:10085000fcff3a0008003700f88f420002003c001d
:100860008000eb00000005008100d1000080d30073
:100870008502e800fcff3a000300e00002003b00b4
:1008800060001000e0801800000006004f89de00c4
:100890008201780085033700c70ade00f107b20045
:1008a000f50fb20008003200e1cf42000200320032
:1008b0000170a00024000500810f700001003200cb
:1008c0000408050044000500810f700002003a0092
:1008d000140005008502e9000000400081c04800c6
:1008e000fcff3b000170a0002400050007f8270072
:1008f000078361000638e10004003a00f707200092
:10090000878361008703710001003a0003f0a200b1
:10091000889fbe008a9fbe008c9fbe00470ade00f3
:100920000480a100c71ade000580a100070028008e
:100930000785600087856100f70f20000720e10030
:100940009e0032000728e1009c003200010678007a
:100950000400e000b4003200f70720008780600048
:100960000170a0000500e000c0003200f707200081
:10097000878161000370a000050652000f003a0055
:100980000b50e1000b0032000308e10002003a00c6
:100990000200e1007e00320002045000838458000f
:1009a000040031000001fd008101fd008402fd0012
:1009b0008a05fd006044b800210037000520e100f1
:1009c00005003d000001fd008101fd008402fd00e5
:1009d0008a05fd00050652007a60e1000500350039
:1009e0000170a1004722dd00848070008a807000c1
:1009f000630037006044b800ef02660007ff2f0075
:100a0000070666000500e00006003400f0831200cf
:100a10008714dd000511de00071bdd0006017100f3
:100a20008519de007060e1000500350009047800da
:100a300082047800030178008001eb007006560004
:100a40000b50e10003003a000200400083804800a0
:100a50000400370060041400e0841c000200580009
:100a6000838058000188a300060032008100d10075
:100a70000080d3008984d3000884d3000402e800f6
:100a8000270037000178a30025003a000100e000ac
:100a9000030032008186cf00698656000a003700c5
:100aa0008c0020000000e00004003a0009007800fb
:100ab000880478000004eb00700252008086cf00aa
:100ac0000d0646000c06e9007060e10006003500e6
:100ad0008000780009007800880478000004eb00aa
:100ae00070065600700252000c00e0000c0034004a
:100af0008c08dd00f00316000703de00868070001e
:100b00000c00dd00074bde00060070008c4cdd00a1
:100b10000743de00868474000c44dd000c025200a2
:100b20006120e1002000350061016000070028001d
:100b300087816400f7ff2700878364000703740040
:100b40000300e0000600320082037300040032005c
:100b50000000e800e08048000188a3000e003a0091
:100b6000f70f20000720e1004a003d000170a100be
:100b70004722dd00810072008a8070000000be0004
:100b80004f06be004f05be004f04be000000060029
:100b90006000b800faff37008100d1000080d30068
:100ba0000402e800eeff37000401780089017400b8
:100bb000a10107008a807000f1ff3700f7010700ec
:100bc000070278000001fd008101fd00f30107002c
:100bd00087027800850372000778a30004003200c2
:100be0000001fd008101fd0006020700e4ff37005f
:100bf000850362000768a300080032000b50e10083
:100c000003003200f0ff2f00f1ff2700dcff370068
:100c10000001fd008101fd00d9ff37000468a30039
:100c2000d7ff3200faff3700f8ff27008883600003
:100c30000b003a000000e00009003a008303640062
:100c400082837300020032000200be00ccff370036
:100c50000b50e100ceff3a000200be00c8ff370093
:100c600014002000810064003eff3700f8ff2700d9
:100c70008883610004003a000200e00002003a00ac
:100c80008c007800beff370015002000830164004f
:100c900039ff370001f827000000200081007500af
:100ca000b7ff3700889fbe008a9fbe008c9fbe00a2
:100cb0001b0020000202be00058668000600280016
:100cc000060666004709de00f20fb200820032001d
:100cd0000243e80080003200c729de00f30fb200b3
:100ce0007d0032000343e8007b003200f107b200d0
:100cf0000170a000f507b2000570a000c708dd0074
:100d00004903de00868070004700dd00c72add0051
:100d10004923de00868272004722dd000305510070
:100d20000403500085835800030031000000400098
:100d3000818048000a05e9008c1f78008a9fbe0068
:100d400004005000858058000402420085824a0059
:100d500000004000818048000005eb000004be0058
:100d60006033b8000406be000d48e10056003100b3
:100d7000050009004dccd8000c01b8000d02b800e8
:100d80008481410060824a008283530003045c0036
:100d900084845c0060055d000a00e00025003a00e4
:100da000800578000d40e10049003100880078009e
:100db00007007800050009004d88d8000c01b80034
:100dc0000d02b8008481410060824a006003110076
:100dd00083835b0004045c00e0845c000900e000a5
:100de00021003a004f01be000300e0002b0032005a
:100df000e3016000070673008c817100010032007e
:100e0000640070004200de004e5edd000c007000e9
:100e1000c258de0001e0a00083010700cf01780086
:100e2000818071004f06be004f05be004f04be001a
:100e3000000006008c8343000d044c00e0844c004d
:100e400060054d000000e9000a00e000d4ff320018
:100e50008c8343000d044c00e0844c0060054d0081
:100e60000000e900ceff37000c0343008d834b00e8
:100e700060044c00e0844c000000e9000900e00040
:100e8000d8ff32000c0343008d834b0060044c00fc
:100e9000e0844c000000e900d2ff37004200de0091
:100ea0004e5edd000c007000c258de0001e0a000c4
:100eb000cf0178000300e000daff3200600010008c
:100ec000e0801800d7ff3700f0ff2f00aaff37009f
:100ed000f0ff2f00b9ff37000404be002f01070008
:100ee000870678000004fd008104fd002b01070047
:100ef000078366000678a300030032000960a7009c
:100f00000800be002c0037000d78a300020032005c
:100f10000800be00280037000778a30026003a002a
:100f200001f0a10009f0a1000668a300030032004f
:100f3000f1ff2700f0ff2f00baff37000d68a30074
:100f4000030032000800be008c807000b5ff37003f
:100f50000768a30007003a000648a3000300320018
:100f6000f1ff2700f0ff2f00aeff37000d48a30070
:100f7000030032006000b8008c807000a9ff3700c9
:100f80000748a3000400320001f8270000002000f9
:100f90008c807000a3ff3700760107000004fd007d
:100fa0008104fd0002057800720107000802be00fe
:100fb0008a01780059ff37000160a000120220006a
:100fc000c281880097ff37000100e0001200320064
:100fd0000500e00010003200889fbe008a9fbe001e
:100fe0008c9fbe000006eb0001f8a3000300320056
:100ff00060001000e08018000cf0a00005f8a300cd
:101000000300320060021200e0821a000cf0a2001d
:101010008005eb0041ff37006000b80002000500ca
:10102000038368000700280007036300470ade0007
:101030000480a100c71ade000580a100f70f200080
:101040000720e100420032000728e10040003200a2
:10105000889fbe008a9fbe008c1f7800f107b200f7
:10106000f307b2000400e000640032000170a00049
:101070000500e000680032000370a0008505420012
:10108000eb07b1000204b8000302b80084844400f6
:1010900060854a00020ab800848444000a854a0038
:1010a000030ab80004054500040033000804d0001a
:1010b0008984d2000a85d2008b05e9006158e100dd
:1010c0003d003500021020000901610003082000e6
:1010d00089816100f7072000878364000886730018
:1010e000c84cde00c853dd00878474004855de001c
:1010f0000300e000060032008203760004003200a4
:101100008904e80060054d000a88a3000c003a003d
:10111000f70f20000758e10044003d000a70a100cd
:10112000c75ddd000a8575008a007300090078003c
:101130004f0678004f05be004f04be0000000600b9
:101140000a05d1008984d3008b05e800f0ff370041
:10115000881f7800060478009000070007027800d6
:101160000001fd008101fd008c000700870278006e
:10117000850372000778a300050032000001fd001e
:101180008101fd009f0007004f0478000000060069
:10119000850372000748a30003003200f0ff2f0010
:1011a000f1ff2700f8ff37000000200001f82700ba
:1011b00088807000f4ff3700880178004848dd001f
:1011c000808171004848de00c850dd0001007000d9
:1011d000c850de00060478000b01780016000700f6
:1011e00088807000d2ff37000500e0000500320063
:1011f000170020003a0007009dff370081037000b0
:10120000f9ff3a00860078004f0678004f05be00cf
:101210004f04be000000050083037100f9ff320097
:10122000270020002e00070094ff370001f8270058
:1012300086807000f4ff37000100e00026003200d5
:10124000610111007810e10023003c006022b80029
:101250007010e10004003500800278000100780081
:101260008000eb00700151000200e0000900340032
:1012700070031100062add00822ade008603dd00ed
:10128000878272000200de00860bdd00070070001e
:101290008208de0084817100f4ff2700048262006e
:1012a0008481710004002800848262006102600071
:1012b00005f0a6000000060004827100070032005d
:1012c0000000e800e0804800000006000002be00c8
:1012d0006000b800efff37006000b80000000600b3
:1012e000889fbe000004eb006138e10016003a0060
:1012f0000100e00008003a00c800de004800dd0000
:10130000880020000100e00003003a00c800de0071
:101310004800dd00680444008184cf00e984540063
:10132000060034008908dd00f08314008703de0026
:10133000878070000900dd00090444006102140088
:101340004f04be00000006000300e00008003a0061
:10135000c811de004811dd00880020000300e00015
:1013600003003a00c811de004811dd0068044400a3
:101370008384cf00e9845400060034008919dd001d
:10138000f08314008713de00878171000911dd00ee
:1013900009044400e1021400e9ff3700270020009f
:1013a00001f0a70017002000470bde00f60fb20087
:1013b000040032000643e8000a0032004702b3008e
:1013c0000000060001037800f607b2000603700073
:1013d00002003a000703b300000006008702b300d2
:1013e0000000060001037800f607b2000603700053
:1013f000020032000770a000000006000760a00095
:10140000000006000478a300040032000578a30061
:10141000030032000168a30001003a000200be0090
:101420000160a0000000060081017000270032006a
:101430008002eb0001f8a3000300320060001000fe
:10144000e080180015002000f4072000020242008e
:1014500020003400f703200087036000060420000a
:101460000003630002082000000161004700de0065
:10147000c909dd0000807100c708de000600e00039
:101480000800320087037100060032001000b0002f
:101490000180b0000188a30002003200c108de0014
:1014a0000402e800f107b200f30f20000320e1007e
:1014b00003003d004722dd00810072002900370053
:1014c00001f827000000eb00260037006000b8009c
:1014d00000000600680212007f20e10002003400d4
:1014e0006000b8001f0037006011b8007020e100f4
:1014f0000400350080017800010078008000eb00d6
:10150000700252000400e00009003400f0031200f1
:101510000719dd008419de000703dd0086817100f4
:101520000400de00070bdd00060070008408de000a
:10153000f7ff2700838363008703710006002800fc
:1015400003036300070032000700e00003003a00d5
:101550006101600002817300020032001000b000df
:101560000180b0000500a6000000060001f0a00008
:10157000000006004f0ade004709de00f107b20056
:10158000f20fb2000b003200f207b1000170a000b0
:10159000c708dd00c901de00838070004700dd0060
:1015a0000400a6000000060060001000e0801800a3
:1015b00000000600810f700001003a0000000600e4
:1015c0008182cf000500e00010003e008082cf0045
:1015d000ee8242007028e1000400390007003e005e
:1015e000800078000000eb000e00370070831200ce
:1015f0008600de000500dd000a003700708352001f
:101600008600dd000000eb0006003700e282520099
:101610008508dd00708312000603de0086807000fe
:101620000500dd007507b0000501ea000400a60012
:101630000000060060001000e080180000000600b6
:10164000889fbe008a9fbe00841f78007c00070030
:101650004f00780011003300f0ff2f00838f6c00e3
:1016600006003b00040565000a00a70008003700db
:1016700009f0a6001000200008003700820f540077
:10168000838f5c00030039001000200001003e0041
:101690000000200009f0a7000000ea004f05be008e
:1016a0004f04be000000e00000000600881f780024
:1016b000030478000300e00007003d006000100014
:1016c000e080180060011900e081190002003b0071
:1016d00001f02d00030037000400070008f0a70008
:1016e00001f0a0004f04780000000600889fbe00b3
:1016f0008a9fbe00008270000402710004827100a3
:10170000260032000004be000200be006011b800d6
:101710006b092000950220000182cf000a003900e9
:101720000541b1000082cf00070039000541b1003a
:101730000982cf00040039000541b1000882cf00c2
:10174000010039000541b10005425200120032008b
:101750000a003b0082817100610164008100d100b8
:101760000080d3008984d3000884d3008b05e8006f
:101770000442e800f7ff3a0007003700080444007d
:1017800089844c0000004800818048008b05e900f6
:101790000442e900f9ff3a00030007004f05be00cc
:1017a0004f04be000000060081002000618055004b
:1017b0000b003d000b00200061fe2f000100e10046
:1017c0001d00340082817100610164008904d10030
:1017d0000884d3000000e800faff3a0071002000fe
:1017e0006100640003007000020060000900320024
:1017f00061044400e0844c000988a5000500320023
:101800008b05e8006808e10002003a008904d10075
:101810000884d300f20f20000258e10005003d00cb
:10182000c75ddd00f907b200898075000800780007
:10183000000006000bf827008b0078000000050070
:101840000004be0014fc07000003be000405be0037
:101850000200be0010fc0700844f75000000060067
:020000040000fa
:101860002a2a00002a540000524100004e53000072
:101870004d49000054540000494e0000472000002c
:101880004f4e00002d4200004f4100005244000026
:1018900020530000454e0000534f0000522000002e
:1018a000564100004c550000455300002a2a000014
:1018b0002a0000004c6f0000636100006c200000f3
:1018c000506f000074200000566f00006c74000020
:1018d00061670000653a0000205200006561000069
:1018e000646900006e670000203d000020000000d9
:1018f0004c6f0000636100006c2000005465000024
:101900006d70000065720000617400007572000067
:10191000653a000020520000656100006469000023
:101920006e670000203d0000200000004c6f0000aa
:10193000636100006c2000005377000069740000b0
:10194000636800002073000074610000747500007b
:101950007300000053570000313a0000204f000090
:10196000464600002000000053570000313a0000b6
:10197000204f00004e00000053570000323a000094
:10198000204f000046460000200000005357000092
:10199000323a0000204f00004e0000005357000074
:1019a000333a0000204f00004646000020000000af
:1019b00053570000333a0000204f00004e00000053
:1019c0002a2a00002a200000524500004d4f000046
:1019d0005445000020430000414e0000204d00000f
:1019e00045530000534100004745000020490000d6
:1019f000442000003d20000030780000002000005e
:101a0000524500004345000049560000454400008f
:101a1000202a00002a2a000000520000656d000004
:101a20006f74000065200000506f000074200000fb
:101a3000566f00006c74000061670000653a00009a
:101a400020000000526500006d6f0000746500000a
:101a500020540000656d0000706500007261000098
:101a600074750000726500003a200000005200000a
:101a7000656d00006f740000652000005377000062
:101a80006974000063680000205300007461000066
:081a90007475000073000000f2
:020000040000fa
:101a98000000fa00ac0207000b0107003c02070037
:101aa8007c030700930207003e030700d1020700ea
:101ab8000c30ef002670ef00010037000000000036
:101ac80026d0bf000004e00004003a00f60007003a
:101ad80076cea8000c30ef00f9ff370026d0bf0003
:101ae800e14f5000f5ff3a000c30ef00020007000c
:101af80076eea800f2ff37000000fa003080800080
:101b080010808800400620008e03070010808000a7
:101b1800cf80de005bfb070002002000030a2400e0
:101b28003dfd070002002000035824005bfc07006d
:101b3800e0808800f1808800a003210020818800cf
:101b480022818000e0808000f18080008b03070004
:101b580018a1a80000c32800f60307000000000031
:101b6800e108800000082000008060000000e0001c
:101b7800fbff3200a00020004009880000000000a0
:101b8800e108800000082000008060000000e000fc
:101b9800fbff3200d000200040098800a0c52800c3
:101ba800e40307000830ef000f00370000000000d2
:101bb800e108800000082000008060000000e000cc
:101bc800fbff320040808000a1032100008040001c
:101bd800104078000000fb00400988004080800029
:101be8000000e8004080880040808000e40f50003a
:101bf800eeff340000000000e1088000000820002b
:101c0800008060000000e000fbff3200a000200020
:101c18004009880000000000e1088000000820005a
:101c2800008060000000e000fbff3200d0002000d0
:101c3800400988003080800020808800400620000d
:101c480040030700208080000017b100cf80de002d
:101c58000cfb070012582900f31724000ffc07009b
:101c6800e0808800f1808800a0032100208188009e
:101c780022818000e0808000f18080003f0307001f
:101c880018a1a80080c72800aa0307000830ef00a1
:101c98000f00370000000000e10880000008200065
:101ca800008060000000e000fbff32004080800000
:101cb800a103210000804000104078000000fb00d4
:101cc80040098800408080000000e80040808800cb
:101cd80040808000e40f5000eeff34000000000058
:101ce800e108800000082000008060000000e0009b
:101cf800fbff3200a000200040098800000000001f
:101d0800e108800000082000008060000000e0007a
:101d1800fbff3200d00020004009880060c928007d
:101d28008403070000000000e1088000000820008c
:101d3800008060000000e000fbff3200a0002000ef
:101d48004009880000000000e10880000008200029
:101d5800008060000000e000fbff3200d00020009f
:101d680040098800c17280000000220000806000e5
:101d78000000e00003003200a0ca28006d0307003d
:101d88000300370040cb28006a030700000000006a
:101d9800e108800000082000008060000000e000ea
:101da800fbff3200a000200040098800000000006e
:101db800e108800000082000008060000000e000ca
:101dc800fbff3200d00020004009880080748000aa
:101dd800680060000000e00003003200c0cb28006b
:101de800540307000300370060cc280051030700a4
:101df80000000000e108800000082000008060006a
:101e08000000e000fbff3200a0002000400988002d
:101e180000000000e1088000000820000080600049
:101e28000000e000fbff3200d000200040098800dd
:101e380080748000700060000000e0000300320041
:101e4800e0cc28003b0307000300370080cd2800c2
:101e58003803070000000000e108800000082000a7
:101e6800008060000000e000fbff3200a0002000be
:101e78004009880000000000e108800000082000f8
:101e8800008060000000e000fbff3200d00020006e
:101e9800400988000a02070080382100a9020700cb
:101ea8000080fa00000006000000fa0020d0bf0001
:101eb800e14f500002003a000b0007002070ef00cd
:101ec8000080fa00000006000000fa000028ef0079
:101ed8000228ef000428ef000628ef000828ef008a
:101ee8000080fa00000006000000fa00889fbe008b
:101ef80018a1a80000ce28000e0307003284800035
:101f08004384800000f02f000100200002027800c6
:101f180003017800800178008100780003006200e6
:101f28008100610081047800000478000800be0088
:101f38004809dd004800de0000007100c808de0026
:101f4800004078000000fb0060818800618180000b
:101f5800000f2000008060005081880050818000c0
:101f68004400de000003b0005081880060818000da
:101f78006f0060000003b00040818800508180003d
:101f8800fa02070040818000f802070030848000d0
:101f980041848000004078000000fb0060818800d8
:101fa80061818000000f200000806000508188005f
:101fb800508180004400de000003b000508188009a
:101fc800608180006f0060000003b00040818800dd
:101fd80050818000e502070040818000e30207008d
:101fe800f0cf2800d302070000000000e1088000bd
:101ff80000082000008060000000e000fbff3200c5
:10200800a00020004009880000000000e1088000ce
:1020180000082000008060000000e000fbff3200a4
:10202800d000200040098800d0d02800c102070055
:1020380091848000a08480004800dd0001007000c9
:102048001080880010808000cf80de000dfa070025
:1020580002002000030a2400effb07000200200012
:10206800035824000dfb0700e0808800f1808800f9
:10207800a00321002081880022818000e080800068
:10208800f18080003d0207000830ef000f003700a4
:1020980000000000e10880000008200000806000c7
:1020a8000000e000fbff320040808000a103210017
:1020b80000804000104078000000fb0040098800c4
:1020c800408080000000e800408088004080800058
:1020d800e40f5000eeff340000000000e10880002b
:1020e80000082000008060000000e000fbff3200d4
:1020f800a00020004009880000000000e1088000de
:1021080000082000008060000000e000fbff3200b3
:10211800d00020004009880020d22800850207004e
:1021280071848000808480004800dd000100700018
:1021380070818800708180000017b100cf80de00b8
:10214800d0f9070012582900f3172400d3fa070022
:10215800e0808800f1808800a003210020818800a9
:1021680022818000e0808000f18080000302070067
:102178000830ef000f00370000000000e108800081
:1021880000082000008060000000e000fbff320033
:1021980040808000a10321000080400010407800aa
:1021a8000000fb0040098800408080000000e80033
:1021b8004080880040808000e40f5000eeff34002b
:1021c80000000000e1088000000820000080600096
:1021d8000000e000fbff3200a0002000400988005a
:1021e80000000000e1088000000820000080600076
:1021f8000000e000fbff3200d0002000400988000a
:1022080070d328004b02070000000000e10880009e
:1022180000082000008060000000e000fbff3200a2
:10222800a00020004009880000000000e1088000ac
:1022380000082000008060000000e000fbff320082
:10224800d0002000400988005084800064006000ad
:102258000000e00003003a00e0cc28003502070047
:102268000300370080cd280032020700000000007c
:10227800e108800000082000008060000000e00005
:10228800fbff3200a0002000400988000000000089
:10229800e108800000082000008060000000e000e5
:1022a800fbff3200d00020004009880050848000e5
:1022b800620060000000e00003003a00c0cb280084
:1022c8001c0207000300370060cc28001902070031
:1022d80000000000e1088000000820000080600085
:1022e8000000e000fbff3200a00020004009880049
:1022f80000000000e1088000000820000080600065
:102308000000e000fbff3200d000200040098800f8
:1023180050848000610060000000e00003003a0083
:10232800a0ca2800030207000300370040cb28009a
:102338000002070000000000e108800000082000fb
:10234800008060000000e000fbff3200a0002000d9
:102358004009880000000000e10880000008200013
:10236800008060000000e000fbff3200d000200089
:10237800400988003e8ea800a0c0b3006b0107008a
:102388003e8ea9004f04be000080fa00000006003f
:102398000000fa00562ea9001f4ea9001f8ea900a2
:1023a800730ea90072eea90072cea900732ea900bf
:1023b8008f6ea90057aea8008e6ea8008e8ea8005a
:1023c800020ea800000ea90001e1a9000021a90041
:1023d80000e1a9000108800000032000010070004e
:1023e80000088800608929004008880001428000b0
:1023f800f0f82f00808060000003200001007000ca
:10240800004288000028a9002028a8000080fa00bf
:10241800000006000000fa00c172800000002200df
:10242800008060000000e000080032008074800036
:10243800680060000000e000040032008074800042
:10244800700060000000e00011003a00e0c1b30035
:1024580036010700c1728000000022000080600081
:102468000000e0000800320080748000680060000e
:102478000000e000040032008074800070006000fa
:102488000000e00002003a002670ef00020037006a
:1024980010c0b30026f0b7000080fa000000060064
:1024a8000000fa000830ef000d0037003e8ea9004a
:1024b8003eaea9003ecea900f0c0b3001b01070044
:1024c8003e8ea8003eaea8003ecea800c0c0b30015
:1024d80016010700408080000000e8004080880066
:1024e80040808000e50f5000f0ff34000080fa00c3
:1024f800000006000000fa003e8ea8003eaea900cb
:102508003ecea90040c1b300080107003eaea800b6
:1025180040c1b300050107003ecea80020c3b300a8
:10252800020107003ecea90040c1b300ff0007002a
:102538003eaea90040c1b300fc0007003e8ea900d2
:102548000080fa00000006000000fa00317c8000dc
:1025580000fc2f00008060000000a000307c880094
:10256800d1072000b0210a00880f0000517c8000ac
:10257800f0f82f0080806000000520000100700046
:10258800507c8800517c800080ff2f000080600014
:102598000000a000507c8800120020008007200066
:1025a800a109200053f8200080497800814978006b
:1025b80082497800207c8000000178000200a00099
:1025c800600420007105200043f82000804978004d
:1025d800814978008249780000000000207c800052
:1025e800610060000000e000fcff3a000080fa0093
:1025f800000006000000fa0057eea9005beea900f3
:102608003beea9003bcea800e0c3b30038edb7000d
:10261800f16c8000f00f28008080600000502100dd
:1026280001007000f06c880011368000f08f2f00d8
:102638000080600000a0a0001036880070c0b300c1
:10264800cbe6b7004136800000ff2f000080600015
:102658000000a000403688009c2aa900e1548000b0
:102668000003200001007000e05488007000200082
:102678002055880050032000105588009c0aa800a7
:1026880081558000000320000100700080558800fb
:1026980070002000c0558800b00aa80010e7a80004
:1026a80011368000f08f2f000080600010368800ff
:1026b80023e8a8002428a8000080fa0000000600eb
:1026c8000000fa00c0482000009088000000eb00dd
:1026d800109088006000200020908800c072800060
:1026e800dd800a00000000000080fb00610060003f
:1026f80000f0a7000000ea000000e9004f00de003b
:102708008174800033810a00010000008180fb0091
:10271800e18060000100e00002003a002100200092
:10272800010037008000eb0080807000807480001a
:1027380044800a00000000000080fb006100600087
:102748000000e00002003a004000200001003700cd
:102758000000eb00010070003090880020808000ad
:102768004090880010808000509088000000000091
:102778000000000000000000f006a80000000000b3
:10278800000000000000000000000000803780000a
:10279800610060000000e000fcff3a000080fa00e1
:1027a800000006000000fa00008ea800002bef00d1
:1027b80051588000f0ff23000080600050588800c6
:1027c80051588000f00f2c0000806000505888009d
:1027d8002158800000f82f000080600020588800f1
:1027e80041588000f0ff21000080600040588800b8
:1027f80011588000f0f92f00008060000060a000f0
:102808001058880002eba900e101200090210a007d
:10281800060b000000eca8000aeba800116080007d
:1028280000f02000010070001060880001eba80093
:1028380000000000016080000000280000806000a7
:102848000000e000fbff32000080fa0000000600f4
:102858000200fa004158800000fc2f000080600050
:102868000020a00040588800090ba80000000000c4
:1028780080598000700060000000e000fcff32001a
:10288800a0608000000f78001e0078000080fa0029
:10289800000006000000fa001e8ea900216c8000ce
:1028a80000f82f00008060003000b300206c880022
:1028b800d1088000f0fc2f0000806000d00888005c
:1028c8003cc5a90018c1a90018e1a900000420000e
:1028d800000988001f81a9001fa1a8002388a8005b
:1028e80019e1a8000080fa00000006000200fa00c2
:1028f800000f7800b08080001e004000b080880083
:10290800b1808000f00f2000808f50000500340057
:10291800b1808000f00f2000008060000000e80017
:10292800b08088000080fa00000006000200fa006b
:10293800004f78000a30ef000a30ef000080fa00fc
:10294800000006000400fa00100798000000eb00e1
:10295800000f78000300370027000900000000007e
:102968001e0fe8001e0090009e007800808f500027
:10297800f9ff35000080fa00000006000e00fa009a
:10298800881f780040079800510798006207980050
:102998000000eb00000f78000000eb001007980023
:1029a8000000eb00200798000000eb0030079800bb
:1029b80018c0b3006011b8004e009000de0090000f
:1029c8008bf707000000e000010035000044eb0031
:1029d8000804e0000b0032001e007800ee009000b2
:1029e80000804000d1c2b300014878001e0fe80003
:1029f8004e009000de00900001f0a2004007980011
:102a0800510798000000eb00200798000a003700e3
:102a180002002000031224004e009000de00900007
:102a28009ef8070040079800510798002e00900074
:102a38000000e8002007980018c0b300020020003a
:102a4800031224004e009000de0090006af7070091
:102a58000000e00001003d000044eb000804e00035
:102a6800ebff3a0010002000100798002b003700f9
:102a78004e009000de00900061f7070030079800d4
:102a88003e009000cf80de007ef707000001be0008
:102a98004e009000de00900092f707004007980073
:102aa800510798001e007800ee009000008040005a
:102ab800be009000814078000143b00001487800d2
:102ac8001e0fe8002e0090000000e00006003a000b
:102ad8001e007800ee00900000804000e1c2b300c4
:102ae800014878001e0fe8000200200003122400ad
:102af8004e009000de00900047f90700400798005c
:102b0800510798002e0090000000e9002007980067
:102b18001e0090000000e800100798001e009000ba
:102b2800e50f5000d2ff34004f0478000080fa000f
:102b3800000006000200fa00000f780005003700c8
:102b48001e007800104078000000fb001e0fe8000f
:102b5800060007001e007800104078000004e0001e
:102b6800f7ff3a000080fa00000006000200fa00b1
:102b7800000f780000000000f0088000610060008d
:102b88000000e000fcff3a001e00780040098800c1
:102b98000080fa00000006000a00fa00881f78008a
:102ba800400798000000eb00100798000000eb00b9
:102bb800000f78006000b8002007980031079800df
:102bc8004e009000304090000080fb00c400dd0003
:102bd80000202100008040001000780061006000a3
:102be800100798001e0090000000e0001a003a004c
:102bf8004e009000304090000080fb00c400dd00d3
:102c0800002021000080400090007800c0ff2100d3
:102c1800008060004200de008000eb004e01900062
:102c280020019800310198004e00900041c0b30087
:102c3800214098004e009000304090000080fb003a
:102c4800c400dd0000202100008040001000780052
:102c5800620f6000630037004e0090003040900023
:102c68000080fb00c400dd0000202100008040003f
:102c7800100078006103b800c0ff210001002000a7
:102c88000604780007037800800378008100780044
:102c98000700640081006300810278000002780068
:102ca8000400be0020079800310798002e0090000d
:102cb800be009000c000dd00000020004e02900021
:102cc80020029800310298004e0090003040900099
:102cd8000080fb004400dd008080e8000020210027
:102ce80000804000100078006102b800f0ff20006a
:102cf80001002000040378000502780080027800b3
:102d0800810078000500630081006200810178007d
:102d1800000178000200be002007980031079800e3
:102d28004e00900020019000b00190002e0290000b
:102d3800be0290004628dd00ca20de008100700037
:102d48004620dd0002004000838048004e019000cc
:102d580020019800310198004e009000304090000a
:102d68000080fb004400dd00e4004000002021005a
:102d780000804000100078004a00de008000eb0070
:102d880020079800310798004e009000200190001d
:102d9800b00190002e009000be009000020040009c
:102da800838048004e01900020019800310198006e
:102db8004e00900031c0b300214098004e009000b2
:102dc800304090000080fb004400dd00e40040003b
:102dd80000202100008040009000780000202000a2
:102de800008f60001e007800e10f500004003a00d8
:102df8004e00900021c0b3001140980073003700c6
:102e08004e00900011c0b300114098004e00900091
:102e1800304090000080fb004400dd00e6004000e8
:102e28000020210000804000100078000040780059
:102e38008080fb004e009000410098004e009000fa
:102e4800304090000080fb004400dd00e6004000b8
:102e58000020210000804000100078004800de00bb
:102e6800004078008080fb004e00900051009800e0
:102e78004e009000304090000080fb004400dd00d0
:102e8800e800400000202100008040001000780089
:102e9800004078008080fb004e00900061009800a0
:102ea8004e009000304090000080fb004400dd00a0
:102eb800e800400000202100008040001000780059
:102ec8004800de00004078008080fb004e00900043
:102ed800710098004e009000304090000080fb0088
:102ee8004400dd00ea00400000202100008040008e
:102ef80010007800004078008080fb004e009000b1
:102f0800010898004e009000304090000080fb00bf
:102f18004400dd00ea00400000202100008040005d
:102f2800100078004800de00004078008080fb0038
:102f38004e009000110898004e009000304090001c
:102f48000080fb004400dd00ec0040000020210070
:102f58000080400010007800004078008080fb006e
:102f68004e009000210898004e00900030409000dc
:102f78000080fb004400dd00ec0040000020210040
:102f880000804000100078004800de000040780013
:102f98008080fb004e009000310898004e009000a1
:102fa800304090000080fb004400dd00e400400059
:102fb80000202100008040001000780000407800c8
:102fc800ef4060004e009000015898004f047800d0
:082fd8000080fa000000060071
:020000040000fa
:102fe0003a100000620000008000000000120000a3
:102ff000000200008000000000100000320000000d
:103000008000000032100000060000008200000076
:1030100032007b00141f4200381000000200000044
:08302000800000000000000028
:020000040000fa
:020000040015e5
:04fe0000ffffff0001
:020000040000fa
:020000040015e5
:04fe2000ffffff00e1
:020000040000fa
:020000040015e5
:04fe3000ffffff00d1
:020000040000fa
:020000040015e5
:04fe38003effff008a
:020000040000fa
:020000040015e5
:04fe4000ff7fff0041
:020000040000fa
:020000040015e5
:04fe4800ffffff00b9
:020000040000fa
:020000040015e5
:04fe5000ddffff00d3
:020000040000fa
:020000040015e5
:04fe5800ffffff00a9
:020000040000fa
:020000040015e5
:04fe6000ffffff00a1
:020000040000fa
:020000040015e5
:04fe6800ffffff0099
:020000040000fa
:020000040015e5
:04fe7000ffffff0091
:020000040000fa
:020000040015e5
:04fe7800ffffff0089
:020000040000fa
:020000040015e5
:04fe8000fffcff0084
:020000040000fa
:020000040015e5
:04fe8800ffffff0079
:020000040000fa
:020000040015e5
:04fff800ffffff0008
:00000001FF
